{
  "_format": "hh3-artifact-1",
  "contractName": "RevenueDistributor",
  "sourceName": "contracts/RevenueDistributor.sol",
  "abi": [
    {
      "inputs": [
        {
          "internalType": "address",
          "name": "_usdc",
          "type": "address"
        },
        {
          "internalType": "address",
          "name": "_treasury",
          "type": "address"
        }
      ],
      "stateMutability": "nonpayable",
      "type": "constructor"
    },
    {
      "inputs": [
        {
          "internalType": "address",
          "name": "owner",
          "type": "address"
        }
      ],
      "name": "OwnableInvalidOwner",
      "type": "error"
    },
    {
      "inputs": [
        {
          "internalType": "address",
          "name": "account",
          "type": "address"
        }
      ],
      "name": "OwnableUnauthorizedAccount",
      "type": "error"
    },
    {
      "inputs": [],
      "name": "ReentrancyGuardReentrantCall",
      "type": "error"
    },
    {
      "inputs": [
        {
          "internalType": "address",
          "name": "token",
          "type": "address"
        }
      ],
      "name": "SafeERC20FailedOperation",
      "type": "error"
    },
    {
      "inputs": [],
      "name": "ZeroAddress",
      "type": "error"
    },
    {
      "inputs": [],
      "name": "ZeroAmount",
      "type": "error"
    },
    {
      "anonymous": false,
      "inputs": [
        {
          "indexed": true,
          "internalType": "address",
          "name": "previousOwner",
          "type": "address"
        },
        {
          "indexed": true,
          "internalType": "address",
          "name": "newOwner",
          "type": "address"
        }
      ],
      "name": "OwnershipTransferred",
      "type": "event"
    },
    {
      "anonymous": false,
      "inputs": [
        {
          "indexed": true,
          "internalType": "address",
          "name": "photographer",
          "type": "address"
        },
        {
          "indexed": false,
          "internalType": "uint256",
          "name": "amount",
          "type": "uint256"
        },
        {
          "indexed": false,
          "internalType": "uint256",
          "name": "photographerShare",
          "type": "uint256"
        },
        {
          "indexed": false,
          "internalType": "uint256",
          "name": "platformShare",
          "type": "uint256"
        }
      ],
      "name": "PaymentDistributed",
      "type": "event"
    },
    {
      "anonymous": false,
      "inputs": [
        {
          "indexed": true,
          "internalType": "address",
          "name": "oldTreasury",
          "type": "address"
        },
        {
          "indexed": true,
          "internalType": "address",
          "name": "newTreasury",
          "type": "address"
        }
      ],
      "name": "TreasuryUpdated",
      "type": "event"
    },
    {
      "inputs": [],
      "name": "BPS_DENOMINATOR",
      "outputs": [
        {
          "internalType": "uint256",
          "name": "",
          "type": "uint256"
        }
      ],
      "stateMutability": "view",
      "type": "function"
    },
    {
      "inputs": [],
      "name": "PHOTOGRAPHER_SHARE_BPS",
      "outputs": [
        {
          "internalType": "uint256",
          "name": "",
          "type": "uint256"
        }
      ],
      "stateMutability": "view",
      "type": "function"
    },
    {
      "inputs": [
        {
          "internalType": "address",
          "name": "photographer",
          "type": "address"
        },
        {
          "internalType": "uint256",
          "name": "amount",
          "type": "uint256"
        }
      ],
      "name": "distributePayment",
      "outputs": [],
      "stateMutability": "nonpayable",
      "type": "function"
    },
    {
      "inputs": [],
      "name": "owner",
      "outputs": [
        {
          "internalType": "address",
          "name": "",
          "type": "address"
        }
      ],
      "stateMutability": "view",
      "type": "function"
    },
    {
      "inputs": [],
      "name": "renounceOwnership",
      "outputs": [],
      "stateMutability": "nonpayable",
      "type": "function"
    },
    {
      "inputs": [
        {
          "internalType": "address",
          "name": "newTreasury",
          "type": "address"
        }
      ],
      "name": "setTreasury",
      "outputs": [],
      "stateMutability": "nonpayable",
      "type": "function"
    },
    {
      "inputs": [
        {
          "internalType": "address",
          "name": "newOwner",
          "type": "address"
        }
      ],
      "name": "transferOwnership",
      "outputs": [],
      "stateMutability": "nonpayable",
      "type": "function"
    },
    {
      "inputs": [],
      "name": "treasury",
      "outputs": [
        {
          "internalType": "address",
          "name": "",
          "type": "address"
        }
      ],
      "stateMutability": "view",
      "type": "function"
    },
    {
      "inputs": [],
      "name": "usdc",
      "outputs": [
        {
          "internalType": "contract IERC20",
          "name": "",
          "type": "address"
        }
      ],
      "stateMutability": "view",
      "type": "function"
    }
  ],
  "bytecode": "0x60a060405234801561000f575f80fd5b5060405161077f38038061077f83398101604081905261002e91610143565b60015f55338061005757604051631e4fbdf760e01b81525f600482015260240160405180910390fd5b610060816100d7565b506001600160a01b0382166100885760405163d92e233d60e01b815260040160405180910390fd5b6001600160a01b0381166100af5760405163d92e233d60e01b815260040160405180910390fd5b6001600160a01b03918216608052600280546001600160a01b03191691909216179055610174565b600180546001600160a01b038381166001600160a01b0319831681179093556040519116919082907f8be0079c531659141344cd1fd0a4f28419497f9722a3daafe3b4186f6b6457e0905f90a35050565b80516001600160a01b038116811461013e575f80fd5b919050565b5f8060408385031215610154575f80fd5b61015d83610128565b915061016b60208401610128565b90509250929050565b6080516105e66101995f395f818160ca015281816101e4015261021d01526105e65ff3fe608060405234801561000f575f80fd5b5060043610610090575f3560e01c8063715018a611610063578063715018a6146101175780638da5cb5b1461011f578063e1a4521814610130578063f0f4426014610139578063f2fde38b1461014c575f80fd5b806326ddaefd146100945780632d61419a146100b05780633e413bee146100c557806361d027b314610104575b5f80fd5b61009d61232881565b6040519081526020015b60405180910390f35b6100c36100be366004610505565b61015f565b005b6100ec7f000000000000000000000000000000000000000000000000000000000000000081565b6040516001600160a01b0390911681526020016100a7565b6002546100ec906001600160a01b031681565b6100c36102a3565b6001546001600160a01b03166100ec565b61009d61271081565b6100c361014736600461052d565b6102b6565b6100c361015a36600461052d565b610336565b610167610378565b6001600160a01b03821661018e5760405163d92e233d60e01b815260040160405180910390fd5b805f036101ae57604051631f2a200560e01b815260040160405180910390fd5b5f6127106101be61232884610561565b6101c8919061057e565b90505f6101d5828461059d565b905061020c6001600160a01b037f0000000000000000000000000000000000000000000000000000000000000000163386856103a0565b600254610248906001600160a01b037f0000000000000000000000000000000000000000000000000000000000000000811691339116846103a0565b60408051848152602081018490529081018290526001600160a01b038516907fb63d16ce268f739ee8d407f4fe2c19a45e8cb4a4771fc0f0c54af2c07836cf7a9060600160405180910390a2505061029f60015f55565b5050565b6102ab610400565b6102b45f61042d565b565b6102be610400565b6001600160a01b0381166102e55760405163d92e233d60e01b815260040160405180910390fd5b600280546001600160a01b038381166001600160a01b0319831681179093556040519116919082907f4ab5be82436d353e61ca18726e984e561f5c1cc7c6d38b29d2553c790434705a905f90a35050565b61033e610400565b6001600160a01b03811661036c57604051631e4fbdf760e01b81525f60048201526024015b60405180910390fd5b6103758161042d565b50565b60025f540361039a57604051633ee5aeb560e01b815260040160405180910390fd5b60025f55565b604080516001600160a01b0385811660248301528416604482015260648082018490528251808303909101815260849091019091526020810180516001600160e01b03166323b872dd60e01b1790526103fa90859061047e565b50505050565b6001546001600160a01b031633146102b45760405163118cdaa760e01b8152336004820152602401610363565b600180546001600160a01b038381166001600160a01b0319831681179093556040519116919082907f8be0079c531659141344cd1fd0a4f28419497f9722a3daafe3b4186f6b6457e0905f90a35050565b5f8060205f8451602086015f885af18061049d576040513d5f823e3d81fd5b50505f513d915081156104b45780600114156104c1565b6001600160a01b0384163b155b156103fa57604051635274afe760e01b81526001600160a01b0385166004820152602401610363565b80356001600160a01b0381168114610500575f80fd5b919050565b5f8060408385031215610516575f80fd5b61051f836104ea565b946020939093013593505050565b5f6020828403121561053d575f80fd5b610546826104ea565b9392505050565b634e487b7160e01b5f52601160045260245ffd5b80820281158282048414176105785761057861054d565b92915050565b5f8261059857634e487b7160e01b5f52601260045260245ffd5b500490565b818103818111156105785761057861054d56fea264697066735822122034c3182aaec36524fc716e954c0c4943ead28c9a1c6a88c3eca23524ec834b7f64736f6c63430008180033",
  "linkReferences": {},
  "deployedLinkReferences": {},
  "immutableReferences": {
    "908": [
      {
        "length": 32,
        "start": 202
      },
      {
        "length": 32,
        "start": 484
      },
      {
        "length": 32,
        "start": 541
      }
    ]
  },
  "inputSourceName": "project/contracts/RevenueDistributor.sol",
  "buildInfoId": "solc-0_8_24-e96bc0d13c2688e84563aa5a43aa01421d58e8b3"
}